:020000040000FA
:0400000091EF08F084
:10100000004D6572686162610000700ED3129B8CA6
:10101000000E956E000E0F013B6F000E836E000EEA
:101020008C6E000E946E000E3A6F000E826E000EF3
:101030008B6E49EC08F0070E046E010E056E100E63
:10104000066E010E28EC08F024EF08F000EF00F027
:10105000076E04C002F0075066EC08F03AEF08F0A3
:1010600005C0F6FF06C0F7FF0800F55098EC08F041
:10107000054A062A05C0F6FF06C0F7FF0800F5502E
:101080000009D8A446EF08F048EF08F030EF08F068
:101090001200380E9FEC08F0020E9FEC08F02A0EAA
:1010A000026E8E0EE82EFED7022EFCD70F0E9FEC9E
:1010B00008F0020E036E380E026EAD0EE82EFED75B
:1010C000022EFCD7032EFAD700F01200036E0304A1
:1010D000D8A46DEF08F06FEF08F073EF08F002503E
:1010E0007F0F9FEC08F0020E0318D8A47AEF08F0E7
:1010F0007CEF08F080EF08F00250BF0F9FEC08F083
:1011000012008B92050EE82EFED700F08B82050EA2
:10111000E82EFED700F08B92A00E00D0E82EFDD76F
:101120001200000EF86E100EF76E000105EF08F0C9
:10113000016E8B8001C08CFF81EC08F01200016E03
:0C1140008B9001C08CFF81EC08F01200C5
:020000040020DA
:08000000FFFFFFFFFFFFFFFF00
:020000040030CA
:0E000000FF381F3CFF3F85FF0FC00FE00F4091
:00000001FF
